:020000040800F2
:10000000A00B002045010008E30B000801090008CF
:10001000E10B0008FF06000855150008000000006D
:10002000000000000000000000000000791200083D
:1000300001070008000000002D0E00081914000838
:100040005F0100085F0100085F0100085F01000810
:100050005F0100085F0100085F0100085F01000800
:100060005F0100085F0100085F0100085F010008F0
:100070005F0100085F0100085F0100085F010008E0
:100080005F0100085F0100085F0100085F010008D0
:100090005F0100085F0100085F0100085F010008C0
:1000A0005F0100085F0100085F0100085F010008B0
:1000B0005F0100085F0100085F0100085F010008A0
:1000C0005F0100085F0100085F0100085F01000890
:1000D0005F0100085F0100085F0100085F01000880
:1000E0005F0100085F0100085F0100085F01000870
:1000F0005F0100085F0100085F0100085F01000860
:100100005F0100085F0100085F0100085F0100084F
:100110005F0100085F0100085F0100085F0100083F
:100120005F0100085F0100085F0100085F0100082F
:10013000DFF80CD000F0A6FA00480047712600084E
:10014000A00B00200648804706480047FEE7FEE770
:10015000FEE7FEE7FEE7FEE7FEE7FEE7FEE7FEE777
:1001600029140008310100082DE9FE4F804681EA7C
:100170000300C00F0C46009021F0004123F0004521
:10018000B8EB0200A94105D24046214690461C46E4
:100190000B46024623F00040104347D0270DC7F31B
:1001A0000A00C3F30A510290401A019040286BDA0A
:1001B000C3F3130040F4801B0098924620B1002343
:1001C000D2EB030A63EB0B0B01985946C0F14002D6
:1001D000504600F0B0F906460D4650465946019A81
:1001E00000F0C8F910EB08006141002487EA1152C1
:1001F00084EAE7731A4340D0009A62B3019A012A55
:100200004FEA075215DC001B61EB02014FF0004280
:1002100002EA0752CDE90042001C41F58011324646
:100220002B4600F0C8F903B0BDE8F08F40462146E8
:10023000F9E7001B61EB0201001C41F58013001877
:100240005B412018A2F5001747EB030140EAD57087
:10025000B6196D4111E06D084FEA360645EAC075E2
:100260004FEA0752001B61EB0201001C41F58011AF
:1002700049084FEA30000019514132462B4603B07D
:10028000BDE8F04F00F088B900980122400000233B
:10029000D0EB020263EBE073009821464FEAE07472
:1002A000B8EB000061EB0401E9E783F000435BE792
:1002B00081F0004158E72DE9FE4F81EA030404F084
:1002C000004421F0004100944FF0000B23F0004364
:1002D00050EA01045ED052EA03045BD0C3F30A542F
:1002E000C1F30A552C44A4F2F3340194A0FB025448
:1002F000C1F3130141F48011C3F3130343F48013DA
:1003000001FB024400FB034E840A970A44EA81542D
:1003100047EA8357A4FB076802958D0A05FB07850A
:100320004FEA932C04FB0C542705029D4FEA065814
:1003300047EA1637B5EB08056EEB070C870E920EF1
:1003400047EA811742EA8312A7FB0201B6EB0B01D1
:1003500064EB00042B0D43EA0C335E1844EB1C5095
:10036000DA465146E7FB0201C5F313044FEA0B33AB
:1003700043EA14534FEA0432019C43EA0603A4F112
:100380000C040294009CCDE900B400F014F903B011
:10039000BDE8F08F00200146F9E72DE9F04D81EA34
:1003A000030404F0004B21F0004514464FF0000A0E
:1003B00023F0004150EA050220D054EA01021DD08A
:1003C000C5F30A570246C5F31303C1F31300C1F383
:1003D0000A5640F4801543F48013A7EB0608101B5F
:1003E000D64608F2FD3873EB050002D308F1010888
:1003F00001E092185B41B8F1000F03DA00200146DA
:10040000BDE8F08D00204FF48011064684460EE0D2
:10041000171B73EB050705D3121B63EB050306439C
:100420004CEA010C49084FEA300092185B4150EA4F
:100430000107EDD152EA030012D082EA040083EAF8
:100440000501084305D0101BAB4106D20122002351
:1004500006E000224FF0004302E06FF0010253106B
:100460001AEB06004CEB085110EB0A0041EB0B01B4
:10047000BDE8F04D00F090B830B5041E71F10004F5
:1004800004DB4FF00044404264EB0101141E73F1A1
:10049000000405DB1C464FF00043524263EB0403AB
:1004A000994208BF904230BD30B50B46014600204E
:1004B0002022012409E021FA02F59D4205D303FA26
:1004C00002F5491B04FA02F52844151EA2F10102A7
:1004D000F1DC30BD2DE9F05F0546002092469B46D9
:1004E00088460646814640241BE02846414647464A
:1004F000224600F02FF853465A46C01A914110D3B5
:1005000011461846224600F016F82D1A67EB01082E
:100510004F4622460120002100F00DF817EB00099C
:100520004E41201EA4F10104DFDC484631462A4634
:100530004346BDE8F09F202A04DB203A00FA02F18E
:10054000002070479140C2F1200320FA03F31943C1
:1005500090407047202A04DB203A21FA02F0002163
:10056000704721FA02F3D040C2F1200291400843C3
:1005700019467047202A06DBCB17203A41FA02F0D1
:1005800043EAE07306E041FA02F3D040C2F12002F0
:10059000914008431946704710B5141E73F10004CA
:1005A00008DA401C41F1000192185B411A4301D165
:1005B00020F0010010BD2DE9F04D92469B4611B18F
:1005C000B1FA81F202E0B0FA80F220329046FFF7F1
:1005D000B2FF04460F4640EA0A0041EA0B015346C7
:1005E0005A46084313D0114653EA010019D0C8F106
:1005F00040025046FFF7AEFF05460E4650465946AC
:100600004246FFF798FF084305D0012004E020464A
:100610003946BDE8F08D0020054346EAE0762C43DC
:1006200037430A986305E40AA0EB08000022FD0A9C
:1006300044EA47540A3002D500200146E9E70105A3
:1006400010196941DDE9084500196941BDE8F04D1F
:10065000A2E7C1F30A52C1F3130140F2FF3341F4A0
:1006600080119A4202DA00200146704740F233437B
:100670009A42A2F2334202DC5242FFF76BBFFFF70D
:100680005ABF0000064C074D06E0E06840F0010349
:1006900094E8070098471034AC42F6D3FFF74CFDBE
:1006A000A0300008C030000870B58C1810F8015B4D
:1006B00015F0070301D110F8013B2A1106D110F8FB
:1006C000012B03E010F8016B01F8016B5B1EF9D1FF
:1006D0002B0705D40023521E0DD401F8013BFAE785
:1006E00010F8013BCB1A921C03E013F8015B01F8F0
:1006F000015B521EF9D5A142D8D3002070BDFEE7A0
:10070000704700000349024600200968114200D0EA
:100710000120704700040140F8B501217D2000F060
:100720009FFB4FF6FF70ADF8000000202E4D8DF8B6
:1007300003006946284600F061F82C4F69463846A8
:1007400000F05CF82A4E6946304600F057F86946DA
:10075000284800F053F86946274800F04FF8042471
:10076000ADF800408DF803406946384600F046F881
:1007700049F68150ADF800008DF8034069463046D7
:1007800000F03CF84FF4EC50ADF800008DF8034059
:100790006946304600F032F86003ADF800008DF88D
:1007A00003406946284600F029F80E20ADF8000005
:1007B00010248DF8034003278DF8027069462846FF
:1007C00000F01CF80820ADF800008DF803408DF80B
:1007D00002706946304600F011F80021012000F057
:1007E0005FF80020F8BD000000080140000C014047
:1007F000001001400014014000180140F0B5CA7813
:10080000002502F00F03D20601D58A7813430A7837
:100810004FF00F0E12F0FF0F4FF001021CD00468D2
:100820000F8802FA05F63740B74211D14FEA850C1E
:100830000EFA0CF724EA070703FA0CF43C43CF78CE
:10084000282F02D0482F02D002E0466100E0066166
:100850006D1C082DE4D304600C88FF2C1ED944685D
:100860005FF0000606F1080702FA07F50F882F402F
:10087000AF420FD14FEA860C0EFA0CF7BC4303FAD5
:100880000CF73C43CF78282F00D14561CF78482F13
:1008900000D10561761C082EE4D34460F0BD000051
:1008A000F0B5144C002801DAE36900E06368420DFA
:1008B000120185B2C0F301579540C0F30346032FE0
:1008C00005D0C2020AD50322B240934307E023F0C9
:1008D0007062636823F07063636002E0AB4343F0CF
:1008E000706201B12A43002801DAE261F0BD626062
:1008F000F0BD000000000140416170470161704798
:10090000FEE70029018802D041F4806101E021F472
:1009100080610180704702460020938A128B43EA6F
:10092000024323F07F42914300D101207047C94325
:10093000818270470029018802D041F0010101E065
:1009400021F0010101807047094910B588424FF03C
:10095000010101D14C0501E04FF48004204600F074
:1009600073FA2046BDE81040002100F06DBA000087
:10097000005400400029018802D041F4807101E058
:1009800021F48071018070470029018802D041F470
:10099000007101E021F400710180704770B50446D8
:1009A000808886B00D4620F03F06684600F070FA59
:1009B00027490298B0FBF1F189B20E43A680228844
:1009C00022F001022280234B2A689A421CD852004E
:1009D000B0FBF2F080B2042800D20420491C21842C
:1009E000A083208840F00100208021884FF6F53058
:1009F0000140A8886A89104308432080A889298972
:100A00000843208106B070BDEB88A3F53F46FF3E4A
:100A10000BD002EBC20303EB0212B0FBF2F080B288
:100A200040F48040020506D007E002EB4202B0FB32
:100A3000F2F080B2F6E740F001004FF496725143B5
:100A40004FF47A72B1FBF2F140F40040C6E70000C7
:100A500040420F00A086010008B5084400900088BD
:100A600008BD12B141F0010101E001F0FE01018277
:100A700070470182704700002DE9F8430D46994602
:100A8000904606460121FFF775FF324F6424394630
:100A90003046FFF740FF10B9641EA4B2F7D200221F
:100AA00029463046FFF7DDFF14B92B4900200860C6
:100AB0002A4F642439463046FFF72DFF10B9641ED3
:100AC000A4B2F7D241463046FFF7D3FF234F642448
:100AD000BF1C39463046FFF71EFF10B9641EA4B292
:100AE000F7D249463046FFF7C4FF64243946304602
:100AF000FFF711FF10B9641EA4B2F7D201213046EE
:100B0000FFF742FF642401213046FFF733FF142131
:100B10003046FFF7A1FFADF800000022294630461D
:100B2000FFF79FFF14213046FFF796FF800702D49E
:100B3000641EA4B2E7D20A493046FFF7F8FE01214D
:100B40003046FFF721FF4F20401E80B2FCD200202C
:100B5000BDE8F8830100030068010020820007005F
:100B60000004001038B50121480500F061F90121A9
:100B7000092000F075F9C020ADF8000003208DF8C1
:100B800002001C208DF8030069461148FFF736FE6D
:100B9000104C2046FFF7D8FE0F49002088804BF606
:100BA000FF70C880302008812015488100018881AD
:100BB0000A48086001212046FFF7BCFE064920468E
:100BC000FFF7ECFE01212046FFF79BFE38BD000039
:100BD000000C01400054004050050020801A06001F
:100BE000FEE770470907090E002806DA00F00F003B
:100BF00000F1E02080F8141D704700F1E02080F83B
:100C00000014704770B5002404F1B000C0B2002198
:100C100000F0F6F80021084600F0F2F8002110205C
:100C200000F0EEF800250121002000F0E9F86D1C2D
:100C3000EDB2802DF7D3641CE4B2082CE4D370BD70
:100C400010B50021AE2000F0DBF80021084600F0CE
:100C5000D7F80021102000F0D3F80021402000F048
:100C6000CFF80021812000F0CBF80021CF2000F048
:100C7000C7F80021A12000F0C3F80021C82000F02F
:100C8000BFF80021A62000F0BBF80021A82000F04A
:100C9000B7F800213F2000F0B3F80021D32000F086
:100CA000AFF80021084600F0ABF80021D52000F095
:100CB000A7F80021802000F0A3F80021D92000F03F
:100CC0009FF80021F12000F09BF80021DA2000F0CD
:100CD00097F80021122000F093F80021DB2000F0AB
:100CE0008FF80021402000F08BF80021202000F038
:100CF00087F80021022000F083F800218D2000F009
:100D00007FF80021142000F07BF80021A42000F0DF
:100D100077F80021A62000F073F80021AF2000F042
:100D20006FF80021AF2000F06BF8FFF76BFF002198
:100D3000BDE810400846AFF3008010B50446B0315E
:100D4000C8B2002100F05CF8102040EA1410002125
:100D500000F056F804F00F00BDE8104040F001002C
:100D6000002100F04DB800002DE9F041203A0024A8
:100D70000D468046D7B27F2803D900208D1C8046BF
:100D8000EDB22946FFF7D9FF0F4E00BF04EB071065
:100D90000121305C00F034F8641CE4B2082CF5D377
:100DA0006D1CE9B24046FFF7C8FF002404EB0710B2
:100DB00030440121007A00F023F8641CE4B2082CCE
:100DC000F4D3BDE8F0810000002A00082DE9F041CD
:100DD00017460E46044600250CE031462046FFF734
:100DE000C3FF0834E4B2782C02D90024B61CF6B252
:100DF0006D1CEDB27A5D002AEFD1BDE8F0810000F4
:100E0000084A30B41268012A0AD1074C034609B1D6
:100E1000402200E00022204630BC7821FFF72CBEA3
:100E200030BC70476801002000540040704700004B
:100E3000044A0029D16901D0014300E08143D16116
:100E40007047000000100240044A0029116901D0D7
:100E5000014300E08143116170470000001002402F
:100E6000044A0029916901D0014300E08143916166
:100E70007047000000100240044A0029D16801D0E8
:100E8000014300E08143D160704700000010024040
:100E900030B5224A5168224B11F00C0103D00429CD
:100EA00003D0082903D0036016E01E4913E05168FF
:100EB000536801F470114FF0020413F4803F04EB07
:100EC000914104D053689B0303D5154B02E0164BA8
:100ED00000E0144B5943016051680F2303EA1111DC
:100EE000124B5C5C0168E14041605468072505EAEB
:100EF00014241C5D21FA04F48460546805EAD424A7
:100F00001B5DD940C1605268032303EA9232074B4C
:100F10001B1F9A5CB1FBF2F1016130BD0010024071
:100F200000127A000024F40000093D00FB000020BC
:100F30002DE9F041DFF8DC8086B0404600F0DAF8B9
:100F40000020ADF804004FF48271ADF80610ADF842
:100F500008000221ADF80A100121ADF80C10490279
:100F6000ADF80E103021ADF81010ADF812000720CA
:100F7000ADF8140001A9404600F0EDF84FF4204010
:100F8000ADF8000018208DF80300234F03248DF8DE
:100F9000024069463846FFF731FC4FF48040ADF817
:100FA000000048208DF8030069463846FFF726FC0C
:100FB000BE14ADF8006010258DF803508DF8024086
:100FC00069463846FFF71AFC0021404600F0DFF87A
:100FD0000121404600F02CF831463846FFF78EFCE0
:100FE000E801ADF800008DF803508DF80240694625
:100FF0003846FFF703FCA801ADF800008DF8035058
:101000008DF8024069463846FFF7F8FB06B000202D
:10101000BDE8F08100380040000C0140034A11880F
:1010200021F0380101431180704700000030014079
:101030000029018802D041F0400101E021F0400187
:1010400001807047F0B5294E87B0304600F052F865
:101050000021ADF800104FF48270ADF80200ADF839
:1010600008107015ADF80A001024ADF80410ADF8A2
:101070000C400720ADF80610ADF80E10ADF81000CA
:101080006946304600F067F8A020ADF8140018203B
:101090008DF81700164F03258DF8165005A9384610
:1010A000FFF7ACFB4020ADF8140048208DF8170086
:1010B00005A93846FFF7A2FBADF814408DF817409C
:1010C0008DF8165005A93846FFF798FB00213046E9
:1010D00000F05DF801213046FFF7AAFF10213846E5
:1010E000FFF70CFC07B00020F0BD0000003001400D
:1010F00000080140114910B588420AD18414012129
:101100002046FFF7B9FE2046BDE810400021FFF75A
:10111000B3BE0B49884202D10121041404E00949FD
:1011200088420AD10121C4132046FFF78DFE2046D4
:10113000BDE810400021FFF787BE10BD0030014020
:1011400000380040003C00400246002012890A425C
:1011500000D00120704730B502884C8802F441531A
:101160000A88CD8822438C882C4322430C89224351
:101170004C8922438C892243CC8922431A43028022
:10118000828B22F400628283098A018230BD0029A9
:10119000818802D041F0040101E021F00401818046
:1011A00070470000F8B50E4604462549244808312A
:1011B00050F8240051F82410084340F001000121A8
:1011C000FFF74EFE1E4808389CB350F8240001215A
:1011D000FFF72EFE18208DF80300194869461838CD
:1011E00030F81400ADF8000003208DF80200154817
:1011F00050F82400FFF702FB04208DF8030010488C
:101200006946143830F81400ADF800000D48083075
:1012100050F82400FFF7F2FA0A4D3146083D55F820
:10122000240000F03DF955F82400012100F027F9D1
:10123000F8BDFFE700680121FFF712FECAE70000D2
:1012400070290008280100200349044A31F81010D1
:1012500052F82000416170476029000838010020E1
:101260000349044A31F8101052F820000161704718
:101270006029000838010020704700000CB50021EB
:10128000264801910091026842F4803202604FF4D6
:10129000A063026802F400320092019A521C01928B
:1012A000009A12B9019A9A42F3D10268920333D597
:1012B000012100911A490A6842F010020A600A6886
:1012C00022F003020A600A6842F002020A604168E2
:1012D000416041684160416841F48061416041681A
:1012E00021F47C114160416841F4F81141600168CA
:1012F00041F08071016001688901FCD5416821F0ED
:1013000003014160416841F0020141604168C1F35D
:1013100081010229FAD10CBD00910CBD00100240E0
:1013200000200240002127A20846FFF74FFD284A6F
:1013300004210020FFF74AFD00211E2000F0FBFFE2
:10134000234C4FF01F32E73C002120611E2001F0AA
:10135000F4F804F17F0500BFD4E90801C4E90601EF
:1013600001F072F9C4E9080101F019F800F58010E4
:10137000A06001F01EF8A06820F00100030E020238
:101380002846C4E90C2301F03DF9114900227A39BD
:10139000182001F000F90021182001F00DF90120BA
:1013A00001F074F800210F2000F0C5FF0006F9D508
:1013B000802200210F2001F0C0F82A2000F0FCFD5F
:1013C000CAE7000053494D504C455F545800000097
:1013D000EF00002070B50F484FF47A710068B0FB41
:1013E000F1F0B0F1807F14D220F07F404FF0E02484
:1013F000401E606165170F212846FFF7F3FB0020B0
:10140000A0610720206105212846FFF7EBFB0020A3
:1014100070BDFEE70C01002002480168491C016014
:1014200070470000000000200F4810B5016841F02F
:101430000101016041680D4A1140416001680C4A98
:1014400011400160016821F480210160416821F4AC
:10145000FE0141604FF41F018160FFF70FFF054956
:101460004FF00060086010BD001002400000FFF85F
:10147000FFFFF6FE08ED00E0C94301807047002938
:10148000818902D041F4005101E021F400518181B1
:1014900070470246002012880A4200D0012070479F
:1014A00030B50446008A85B00D464CF6FF71084001
:1014B000E98801432182A1894EF6F3100140A888F2
:1014C0002A8910436A890A431043A081A08A4FF6F3
:1014D000FF410840A9890143A1826846FFF7D8FC73
:1014E0001948844201D1039800E00298A1890904B7
:1014F00000EBC00101EB0010296801D5490000E0B4
:101500008900B0FBF1F06422B0FBF2F109010B0994
:101510006FF018056B4300EB8300A3891D044FF0A7
:10152000320306D503EBC000B0FBF2F000F0070079
:1015300005E003EB0010B0FBF2F000F00F000843F1
:10154000208105B030BD000000380140C1F3080122
:1015500081807047FEE700000FB4054B10B503A96A
:10156000044A029800F090F910BC5DF814FB0000EA
:101570001D2600082C03002002E008C8121F08C125
:10158000002AFAD170477047002001E001C1121F04
:10159000002AFBD1704738B504466D208DF8000055
:1015A0006B46012240F606012E2000F0D5FF41F6E1
:1015B000060114B140F2076201E041F207622E20F9
:1015C00000F0AEFF38BD38B504466B46022200215C
:1015D000362000F0C7FE0E2C2CD2DFE804F00F07F7
:1015E000152B2B2B2B1D392B2B44494E00208DF80E
:1015F00000009DF8010000F0FE0019E09DF80000D9
:1016000000F0FC00401C04E09DF8000000F0FC002D
:10161000801C8DF800000DE09DF8000000F0B30084
:1016200040F048008DF800009DF8010040F0800077
:101630008DF801006B4601220021362000F08CFF5E
:101640000122114636200DF1010300F085FF38BD5F
:101650009DF8000000F0B3008DF800009DF8010037
:1016600000F07F00E4E79DF8010040F00200DFE7B2
:101670009DF8010000F0FD00DAE79DF8000000F0A1
:10168000CF0040F02000C4E708B503208DF801002A
:1016900001208DF800006B4602220021362000F068
:1016A0005BFF4FF4004206212D2000F039FF01209E
:1016B00000F082FC0120FFF786FF08BD08B5010A93
:1016C0008DF801108DF800006B46022204212D20B8
:1016D00000F042FF03208DF800006B460122062136
:1016E0002D2000F039FF00208DF800006B4601220C
:1016F00006212D2000F030FF0A212D2000F01BFED6
:1017000008BD00002DE9FF5F82B00021DDE9043053
:10171000020DDDF840B0034318D044F61050A2F299
:10172000FF3242431514119801281FD0A5EB0B007E
:10173000401C5FEA000A4FF000064E4FDFF8389178
:10174000B046504615D5CAF1000413E011980124A3
:101750004AA3012801D16FEA0B010298119AC0E94E
:101760000031C0E9024206B0BDE8F09FCBF10000B5
:10177000DFE704460021404A491842EB0450CDE916
:10178000001012E0E00707D032463B46404649468B
:10179000FEF791FD8046894632463B461046194683
:1017A000FEF789FD06460F466410002CEAD1DDE9FC
:1017B0000401DDE90023BAF1000F06DAFEF77BFD34
:1017C00042464B46FEF777FD05E0FEF7E6FD424652
:1017D0004B46FEF7E2FD04460E460022284BFEF77C
:1017E0004BFE03D84FF0FF30014607E00022254BA7
:1017F00020463146FEF7B8FCFEF72BFF102409E027
:10180000002C0ADB0A220023FEF764FE039B303221
:101810001A55641E50EA0102F2D1641C039AC4F105
:1018200011031444119A012A03D0012208430DD157
:101830000AE0084304D000204FF0110B119072E72A
:10184000A3EB0B056D1E0DE05B4504DD4FF00002C0
:1018500005F1010504E003DA4FF00002A5F10105EE
:10186000002AECD002981199C0E90231C0E9004584
:1018700079E70000000014400000F03F3000000055
:101880000000F0430000E03F2DE9FF4F95B09B467C
:101890008946064600250FE2252877D100242746F1
:1018A000F84A0121059400E0044316F8013F203B6B
:1018B00001FA03F01042F7D130782A2811D06FF0E6
:1018C0002F033078A0F13002092A16D8059A44F087
:1018D000020402EB820203EB42021044761C0590E4
:1018E000EFE759F8042B0592002A03DA504244F43A
:1018F0000054059044F00204761C30782E2816D14E
:1019000016F8010F44F004042A280DD06FF02F02BE
:101910003078A0F13003092B09D807EB870302EBDD
:101920004303C718761CF3E759F8047B761C30781C
:101930006C280FD006DC4C2817D068280DD06A28F8
:1019400014D104E0742810D07A280FD10DE044F4AB
:1019500000140AE044F4801401E044F44014727866
:10196000824202D104F58014761C761C30786628F9
:101970000BD013DC582877D009DC002875D0452817
:10198000F6D04628F4D047281AD19DE118E0632804
:1019900035D0642879D0652812D195E1702873D0AC
:1019A00008DC6728F1D069286FD06E280DD06F2829
:1019B00006D1B5E073282CD0752875D0782874D05E
:1019C0005A46179990476D1C75E1C4F302500228DE
:1019D00009D003280DD0D9F8001004280DD00D60CF
:1019E00009F1040967E1D9F80010EA17C1E90052CA
:1019F000F6E7D9F800100D80F2E70D70F0E719F85E
:101A0000041B8DF8001000208DF80100EA4601202B
:101A100003E059F804AB4FF0FF3061074FF00001CD
:101A200002D40DE008F101018846B9420FDA804581
:101A3000F8DB1AF808100029F4D108E008F10101D8
:101A400088468142FADB1AF808100029F6D1059879
:101A50005B46A0EB080721463846179A00F094FA37
:101A6000284400EB080507E04DE029E10DE01AF8F5
:101A7000010B5A4617999047B8F10108F7D25B4617
:101A800021463846179A13E142E00A220092C4F335
:101A900002524FF0000A022A08D059F804CB032A58
:101AA0004FEAEC710AD00DE029E02AE009F10701C4
:101AB00021F00702F2E802C1914609E00FFA8CFC1E
:101AC0004FEAEC71042A03D14FFA8CFC4FEAEC7117
:101AD000002907DA0A460021DCF1000C61EB020163
:101AE0002D2202E0220504D52B228DF804200122AC
:101AF00003E0E20701D02022F7E7904659E00A21EF
:101B000002E010220DE010214FF0000A00910BE0DE
:101B100010224FF0000A44F004040827009203E06A
:101B200008224FF0000A0092C4F30252022A05D0A4
:101B300059F804CB0021032A08D009E009F1070174
:101B400021F00702F2E802C1914605E01FFA8CFC81
:101B5000042A01D10CF0FF0C4FF00008220728D511
:101B6000702806D0009B83F0100353EA0A0305D0C7
:101B70000EE040228DF80420012208E05CEA010218
:101B800006D030228DF804208DF805000222904600
:101B9000009B83F0080353EA0A030AD15CEA0102BE
:101BA00001D1620705D530228DF804204FF00108DD
:101BB0007F1E582804D034A003900EA802900DE098
:101BC00036A0F9E753466046009AFEF783FC844648
:101BD0000398825C0298401E029002705CEA010049
:101BE000F0D1029806A9081A00F1200A600702D570
:101BF00024F4803400E00127574502DDA7EB0A00FA
:101C000000E0002000EB0A01009005984144401AD2
:101C10000590E00306D45B462146179A059800F02C
:101C2000B3F90544002706E001A85A46C05D17999C
:101C300090476D1C7F1C4745F6DBE0030CD55B46E7
:101C40002146179A059800F09FF9054404E03020DA
:101C50005A46179990476D1C0099481E009000291C
:101C6000F5DC08E0029802995A460078491C029176
:101C7000179990476D1CBAF10001AAF1010AF1DC35
:101C800065E1000009280100303132333435363740
:101C900038396162636465660000000030313233B8
:101CA0003435363738394142434445460000000058
:101CB00000F058F90544761C307800287FF4ECAD2C
:101CC00019B02846BDE8F08F620700D4062709F155
:101CD000070222F0070CFCE80223E14603F000486B
:101CE0005FEA080C02D00FF2702C0DE05FEA045C92
:101CF00002D50FF2682C07E05FEAC47C02D00FF235
:101D0000602C01E0AFF2700C4FF0FF3823F000437D
:101D1000CDF850C065280CD006DC452809D04628EF
:101D20001DD047283DD13DE0662818D067287ED1D8
:101D300038E00021112F01DB112000E0781CCDE9F3
:101D4000000106A90EA8FFF7DDFCDDE90F010E9AE0
:101D500003910021009207F1010A04914DE04FF038
:101D600000400097CDE9011006A90EA8FFF7CAFCB4
:101D7000DDE90F0203920E9B11990022DDF80CA001
:101D80000093049211B9791C00EB010AB7EB0A0029
:101D900004D4C0F1FF3007F1010A0490AAEB070058
:101DA000019044E0012F00DA01270021112F01DD0D
:101DB000112000E03846CDE9000106A90EA8FFF782
:101DC000A1FCDDE90F010E9A03910021049100921C
:101DD000BA4621070CD40399514500DA8A46BAF174
:101DE000010F05DD009AAAF10101515C302908D0EC
:101DF000B84202DA10F1040F06DA0121CDE9011030
:101E000015E0AAF10101E9E7002805DC0499014485
:101E10000491AAEB000102E0411C514500DD8A4615
:101E20000499401A401C01904FF000400290200796
:101E300004D40198504501DBCDF8048000208DF8D2
:101E40004F0002980DF14F07B0F1004F25D02B2025
:101E50000E9002984FF0020800280CDA40420290DF
:101E60002D200E9007E00A210298FEF71DFB30316D
:101E7000029007F8011DB8F10001A8F10108F2DC99
:101E800002980028EFD1791E0E980870307800F083
:101E9000200040F0450007F8020D12A8C01B00F119
:101EA00007081498007800B1012000EB0A0101989E
:101EB00001EBE07105984144401A401E0590E00393
:101EC00006D45B462146179A059800F05DF8054454
:101ED0001498007818B15A46179990476D1CE00382
:101EE00024D55B462146179A059800F04DF8054425
:101EF0001CE00498002807DBDDE90301884203DDCC
:101F00000098405C179901E0179930205A46904795
:101F1000049805F10105401C04900198401E0190B1
:101F200004D12E205A46179990476D1CBAF1000132
:101F3000AAF1010ADDDC05E017F8010B5A461799F2
:101F400090476D1CB8F10001A8F10108F4DC5B4674
:101F50002146179A0598ABE62D0000002B000000E3
:101F6000200000002DE9F041044600251E461746DA
:101F7000880404D405E039462020B0476D1C641E57
:101F8000F9D52846BDE8F0812DE9F0410446002549
:101F90001E469046C80301D5302700E0202788045C
:101FA00004D505E041463846B0476D1C641EF9D59E
:101FB0002846BDE8F081000010B5044600F014FC8E
:101FC00004EB000400F010FC001B0028FADD10BD3B
:101FD000002805D04FF0E0214FF40000C1F80001C7
:101FE000704710B51720FEF78DFB002805D04FF085
:101FF000E0224FF40001C2F8801110BD2DE9F84F26
:1020000004460578407978494FF00009C84631F810
:10201000107061787548491ECEB20163042D75D0E9
:10202000072D73D000218A46217801736F49E27928
:102030008969002A6CD021F480018161217A417381
:10204000217A4FF44033826903EA01410A4383460F
:1020500082610021042000F070FA3A4642F6040141
:102060002E2000F05DFA3046FFF795FA604F614987
:102070000522785D00EB8000431807212B2000F03B
:102080006BFA5D49012201EB0A030B21282000F0C5
:1020900063FA785D594951F820200C21282000F07E
:1020A0004CFAE079564901EB8000A17930F8112013
:1020B0000221272000F034FA5248042130F816207B
:1020C000272000F02DFAE07938B3A07804282AD030
:1020D00028208DF8000020220621272000F020FA79
:1020E0006B4601222621272000F036FA4648E17887
:1020F00000EB061050F821200821272000F01DFADF
:10210000B4F80900A0B117E000E001E001218AE77E
:1021100041F48001FF08816190E7642206212720B5
:1021200000F0FEF9E2E710208DF800000246D3E748
:1021300041F24100A4F80900B4F809202021272029
:1021400000F0EEF9314F0C2123203A6800F0F5F948
:1021500007EB460004218288232000F0E1F9A079F2
:1021600058B1E0792A49012243180021212000F0CA
:10217000F3F94FF003094FF0010805F00F002907AC
:1021800040EA116061784FF4402202EA814108433D
:10219000920002EA095108434FF4003202EA484132
:1021A000084321794FF0F86202EA815108436179CE
:1021B00040EAC16200211F2000F0BFF9A0786178D9
:1021C0004FF4004308430204CBF81020E1790820C3
:1021D00043EA41310A430021CBF8102000F0ADF969
:1021E0000020BDE8F88F00006C300008600500207A
:1021F000F02F0008103000082E300008F82F0008DB
:102200003C300008483000084C30000830300008EE
:102210003830000810B504460421362000F08BF851
:1022200014B140F4006201E020F400620421BDE832
:102230001040362000F081B97CB50546324C0420B0
:102240008DF8000000216175216384F8251084F861
:102250002C10A1836163A16300F080F82B492060FA
:10226000884201D088177CBD0020FFF7ACF96B468F
:1022700001220021242000F06FF91E20FFF71EFA32
:1022800086B2300AA0730420FFF718FA10F0FF0F8F
:102290000CD002208DF8040001AB012212212D2068
:1022A00000F05AF9A08B40F48050A0830620FFF77D
:1022B00005FA60600720FFF701FAA06016F01F0022
:1022C000207501D110202075C0B200F083F9E80715
:1022D00006D0FFF7D9F9A08B40F40060A08309E095
:1022E0000521362000F014F820F400720521362074
:1022F00000F016F90120FFF766F90021042000F034
:102300001AF8A06100207CBD600500203001CADE03
:1023100038B54FF6FF7489B280B26B46022200F0E6
:1023200021F830B99DF800009DF8011000EB012064
:1023300084B2204638BD38B54FF0FF3489B280B240
:102340006B46042200F00EF830B903216846425C67
:10235000491E02EB0424FAD5204638BD0021084668
:10236000FFF7E9BF08B551B140F040008DF800001B
:10237000C8B27F2907D88DF8010002200BE08DF844
:102380000000012007E040F080008DF80100C8093E
:102390008DF802000320694600F02CFA08BD0121E7
:1023A0000620FFF7C8BF0346052200211720FFF7CC
:1023B000D9BF024601210A2000F0BFB838B5044653
:1023C000C0076B464FF002024FF000014FF02600AD
:1023D0002DD0FFF7C7FF9DF80100012220F03C003F
:1023E00040F014008DF80100114626200DF1010384
:1023F00000F0B2F86B46012202213620FFF7B2FF4F
:102400009DF800006B4640F084008DF8000001222A
:102410000221362000F0A0F810208DF800000120E5
:102420008DF80100022228216B4636200BE0FFF7D1
:1024300099FF9DF801006B4620F014008DF8010013
:1024400002220021262000F087F8A00711D50F20D6
:102450008DF800006B4601222A21362000F07CF81E
:1024600000208DF800006B4601222A21362000F062
:1024700073F838BD024641F604012E2000F050B832
:1024800002460021182000F04BB80000F8B50024E7
:102490000546224F26468DF8004080070BD5802048
:1024A0008DF800006B46012200210D2000F054F849
:1024B000012087F82C00E8079DF8000021D040F0AB
:1024C00006008DF800006B46012200210D2000F06F
:1024D00043F803210F20FFF71BFF10F4816F1AD080
:1024E00040208DF800006B46012200210D2000F0F5
:1024F00033F80020FFF78EFE87F82C604FF0FF3492
:1025000009E040F002008DF800006B460122002136
:102510000D2000F021F82046F8BD000060050020E5
:1025200008B589B28DF80020120A8DF8012080B21A
:102530006B46022200F010F808BD38B500236C4647
:10254000E254120A5B1C042BFADB89B280B22346E8
:10255000042200F001F838BD08B551B140F0C000C8
:102560008DF80000C8B27F2909D88DF8010002203B
:102570000DE040F080008DF80000012007E040F001
:1025800080008DF80100C8098DF80200032069461B
:1025900000F0B0F908BD10B514460244B2F5806FE2
:1025A00002D94FF0FF3010BD0B46821E2146092094
:1025B000FFF7D2FF002010BD054A10B5126940EAAE
:1025C0008150024300210820FFF7B7FF002010BD13
:1025D0006005002038B504466B4601220E212B20F1
:1025E000FFF7C0FE9DF8000004F01F0120F01F005F
:1025F00001438DF800106B4601220E212B20FFF7BE
:10260000ABFF38BD10B500214254120A42EA036202
:102610001B0A491C0429F7DB10BD000070B5094CEA
:10262000054640212046FEF727FFE9B22046FEF787
:102630008DFF40212046FEF72CFF0028F9D02846C8
:1026400070BD0000003801407CB500242546684676
:10265000FFF7A9FE042069462D0245EA146522020F
:102660000C5C1443401EF7D5204629467CBD000073
:1026700000F08CF829A0FEF76FFF00F0F9F800F0E9
:1026800020F90120FFF7D8FD401C31D000F016F9E9
:102690002748FFF7B3FC0120FFF790FE48F2B60091
:1026A000FFF7E8FE0020FFF7EBFE002121A208461D
:1026B000FEF78CFB22A0FEF74FFF2748254A24494E
:1026C000C0E90012264A2549C0E902120021C0E9EA
:1026D0000411244AC0E90612C0E90811C0E90A1130
:1026E000C0E90C11C0E90E11C0E91011FEF71AFE85
:1026F0001DA0FEF731FF002121A20846FEF766FB70
:102700000020FEF7ADFD6420FFF756FC0020FEF729
:102710009BFD6420FFF750FCF2E7000068656C6CDD
:102720006F2064776D31303030210D0A00000000D9
:1027300040000020494E49542050415353000000AE
:10274000696E69742070617373210D0A00000000C6
:10275000B81E85EB51B8BE3FF0040020C3F5285CDD
:102760008FC2D53F0000D03F64776D3130303020CC
:10277000696E6974206661696C210D0A00000000B1
:10278000494E4954204641494C00000010B50121F2
:102790007D20FEF765FB01210803FEF761FB0121A7
:1027A0008803FEF745FBFDF7B7FFFEF713FEFEF7C4
:1027B00049FCFEF7BDFB0B4C4FF400612046FEF7D1
:1027C0009BF821152046FEF797F80A20FFF7F4FB47
:1027D000FEF7C8F9FEF734FAFEF714FABDE8104028
:1027E00000F072B8000C014001480068704700001A
:1027F000000000202DE9F05F1D4616468A46074678
:102800000024FFF7EEFB18494FF010098346C1F88A
:102810000090DFF858800DE01AF80410A8F80C10AA
:1028200001214046FEF790FC0028F9D0B8F80C00D2
:102830002870641CBC42EFDB00200246414606E0E3
:102840008A810B89DB07FCD08B892B54401CB0425A
:10285000F6D30549091FC1F800905846FFF7B8FBA9
:102860000020BDE8F09F0000140801400030014046
:10287000F8B54FF48054ADF8004010208DF80300F7
:102880000D4E03258DF8025069463046FDF7B6FF20
:1028900021463046FEF730F8ADF8004000208DF8B4
:1028A00003008DF8025069463046FDF7A7FF02206D
:1028B000FFF782FBF8BD0000000C01400820FEF786
:1028C000ADBB2020FEF7AABB1FB54FF4E13000904E
:1028D0000020ADF80400ADF80600ADF80800ADF832
:1028E0000C000C20ADF80A0069460020FEF75AFCE7
:1028F0001FBD00002DE9F041984615460F460646DB
:102900000024FFF76EFB02461148102303601148B4
:1029100006E0395D81810189C907FCD08189641C89
:10292000B442F6DB002107E018F8014084810489F5
:10293000E407FCD08489491CA942F5D30448001F50
:1029400003601046FFF744FB0020BDE8F081000063
:102950001408014000300140000204000004080097
:10296000080080000001000200400000000002009A
:102970000400000004000000040000000400000047
:1029800010000000800000008000000080000000B7
:1029900001000020000100200040008008008000AD
:1029A0000400000010000000000100000001000011
:1029B00000010000000100002000000000010000F4
:1029C000010000200001002000400080080080007D
:1029D00000000200060006000600060003000600D4
:1029E00000000D0008000D000E000F00030007009E
:1029F00006002800170028002800280009001700FA
:102A000000000000000000000000000000000000C6
:102A1000000000F80000000000000033300000005B
:102A200000100C06100C0600000000000000000062
:102A300040C07840C0784000043F04043F040400D4
:102A4000007088FC08300000001820FF211E0000E4
:102A5000F008F000E018000000211C031E211E00F9
:102A600000F00888700000001E212324192721107F
:102A700010160E0000000000000000000000000022
:102A8000000000E0180402000000000718204000C9
:102A900000020418E00000000040201807000000B9
:102AA000404080F0804040000202010F010202001D
:102AB000000000F0000000000101011F0101010001
:102AC000000000000000000080B070000000000066
:102AD00000000000000000000001010101010101EF
:102AE0000000000000000000003030000000000086
:102AF000000000008060180400601806010000005B
:102B000000E010080810E000000F102020100F0057
:102B1000001010F8000000000020203F20200000DE
:102B20000070080808887000003028242221300036
:102B300000300888884830000018202020110E003E
:102B40000000C02010F8000000070424243F2400E7
:102B500000F80888880808000019212020110E00BC
:102B600000E0108888180000000F112020110E00CE
:102B700000380808C83808000000003F00000000C6
:102B80000070880808887000001C222121221C0087
:102B900000E010080810E0000000312222110F00B0
:102BA000000000C0C0000000000000303000000045
:102BB00000000080000000000000806000000000B5
:102BC00000008040201008000001020408102000CE
:102BD0004040404040404000040404040404040019
:102BE00000081020408000000020100804020100AE
:102BF000007048080808F0000000003036010000AE
:102C0000C030C828E810E0000718272423140B0060
:102C10000000C038E0000000203C230202273820DA
:102C200008F8888888700000203F202020110E00BE
:102C3000C0300808080838000718202020100800B5
:102C400008F808080810E000203F202020100F009E
:102C500008F88888E8081000203F2020232018006A
:102C600008F88888E8081000203F200003000000D2
:102C7000C03008080838000007182020221E020073
:102C800008F808000008F808203F210101213F2032
:102C9000000808F8080800000020203F202000005D
:102CA00000000808F8080800C08080807F0000004D
:102CB00008F888C028180800203F20012638200086
:102CC00008F8080000000000203F202020203000ED
:102CD00008F8F800F8F80800203F003F003F200007
:102CE00008F830C00008F808203F200007183F000F
:102CF000E01008080810E0000F10202020100F003E
:102D000008F808080808F000203F21010101000030
:102D1000E01008080810E0000F18242438504F0075
:102D200008F8888888887000203F2000030C302035
:102D300000708808080838000038202121221C0073
:102D4000180808F8080818000000203F20000000BC
:102D500008F808000008F808001F202020201F00A5
:102D60000878880000C83808000007380E01000005
:102D7000F80800F80008F800033C0700073C0300CF
:102D8000081868808068180820302C03032C302035
:102D90000838C800C83808000000203F20000000A4
:102DA00010080808C83808002038262120201800FC
:102DB000000000FE020202000000007F40404000D0
:102DC000000C30C000000000000000010638C00008
:102DD00000020202FE000000004040407F000000B0
:102DE00000000402020204000000000000000000D5
:102DF00000000000000000008080808080808080D3
:102E000000020204000000000000000000000000BA
:102E100000008080808000000019242222223F20B0
:102E200008F8008080000000003F112020110E00F3
:102E30000000008080800000000E11202020110082
:102E4000000000808088F800000E112020103F2034
:102E50000000808080800000001F222222221300B8
:102E6000008080F0888888180020203F2020000003
:102E70000000808080808000006B949494936000B8
:102E800008F8008080800000203F210000203F20C3
:102E900000809898000000000020203F20200000C3
:102EA000000000809898000000C08080807F0000B3
:102EB00008F8000080808000203F24022D30200090
:102EC000000808F8000000000020203F202000003B
:102ED0008080808080808000203F20003F20003F55
:102EE0008080008080800000203F210000203F2063
:102EF0000000808080800000001F202020201F0014
:102F0000808000808000000080FFA12020110E0042
:102F10000000008080808000000E112020A0FF8033
:102F2000808080008080800020203F2120000100E0
:102F30000000808080808000003324242424190035
:102F4000008080E0808000000000001F2020000042
:102F50008080000000808000001F202020103F2083
:102F6000808080000080808000010E300806010013
:102F700080800080008080800F300C030C300F00B8
:102F800000808000808080000020312E0E312000E3
:102F9000808080000080808080818E701806010013
:102FA00000808080808080000021302C2221300031
:102FB00000000000807C020200000000003F404052
:102FC00000000000FF00000000000000FF00000003
:102FD0000002027C800000000040403F0000000032
:102FE00000060101020204040000000000000000CD
:102FF0000000010203040005405C0000A05C040026
:10300000C06C0800805C0400E03F1E00E07D1E00F4
:10301000070400091E080540082609104008560844
:10302000054008261D040008BE1D040008BED8BCCB
:1030300007A9022570889B88401008000A00160026
:10304000010006000100020087008D002D001A31EA
:1030500052001A339A001A351D011A376B003B31A2
:10306000BE003B335E013B3596023B370000995969
:103070009959EB518F421E45142E0080EB51F528D3
:103080003333E13A703DE13AC235852BC2353333F3
:10309000C235C235AE47E13A5138A330513800004D
:1030A000C03000080000002030030000A80600081F
:1030B000F031000830030020700800008815000877
:1030C00001401009050224020909010125210141DD
:1030D0008857DE57415645AA790F5A210CBF5645ED
:1030E000574110021BE22379180215FE791FAAE04E
:1030F0000DAAE10DAAE20DAAE30D32E42D444543E9
:10310000410C2145020406082D0102030404250692
:1031100007080984A24A04791514380140124412A0
:10312000401A0808A9041A10049A1C046914DA2029
:10313000044A140852011BF010012AFF050215F081
:103140001B0F04012AFF0502130F18094040405FBE
:1031500055555575041A5F0C091121080C11200FE3
:10316000094989790909090F201F112FFE02424AD6
:10317000CA4A0304134202FE000E14FF40504C439F
:1031800040404F50505C40FF1BF888012AFF050269
:1031900015F81B1F08012A7F200B109F80E23B803F
:1031A0008201000916E2A2928A8682808004184079
:1031B000807F172424A4FEA3221B22CCAA0114156D
:1031C000080601FF2B0104010511FF020202580845
:1031D000101010FF109008C3021108080F140444C7
:1031E000827F01808040432C10284681A00000008F
:0400000508000131BD
:00000001FF
